{
  "_format": "hh-sol-artifact-1",
  "contractName": "TransparentCrowdfunding",
  "sourceName": "contracts/TransparentCrowdfunding.sol",
  "abi": [
    {
      "inputs": [],
      "stateMutability": "nonpayable",
      "type": "constructor"
    },
    {
      "inputs": [],
      "name": "AccessControlBadConfirmation",
      "type": "error"
    },
    {
      "inputs": [
        {
          "internalType": "address",
          "name": "account",
          "type": "address"
        },
        {
          "internalType": "bytes32",
          "name": "neededRole",
          "type": "bytes32"
        }
      ],
      "name": "AccessControlUnauthorizedAccount",
      "type": "error"
    },
    {
      "inputs": [],
      "name": "EnforcedPause",
      "type": "error"
    },
    {
      "inputs": [],
      "name": "ExpectedPause",
      "type": "error"
    },
    {
      "inputs": [],
      "name": "ReentrancyGuardReentrantCall",
      "type": "error"
    },
    {
      "anonymous": false,
      "inputs": [
        {
          "indexed": true,
          "internalType": "uint256",
          "name": "projectId",
          "type": "uint256"
        },
        {
          "indexed": true,
          "internalType": "address",
          "name": "contributor",
          "type": "address"
        },
        {
          "indexed": false,
          "internalType": "uint256",
          "name": "amount",
          "type": "uint256"
        }
      ],
      "name": "ContributionMade",
      "type": "event"
    },
    {
      "anonymous": false,
      "inputs": [
        {
          "indexed": true,
          "internalType": "uint256",
          "name": "projectId",
          "type": "uint256"
        },
        {
          "indexed": false,
          "internalType": "uint256",
          "name": "expenseIndex",
          "type": "uint256"
        }
      ],
      "name": "ExpenseApproved",
      "type": "event"
    },
    {
      "anonymous": false,
      "inputs": [
        {
          "indexed": true,
          "internalType": "uint256",
          "name": "projectId",
          "type": "uint256"
        },
        {
          "indexed": false,
          "internalType": "uint256",
          "name": "expenseIndex",
          "type": "uint256"
        },
        {
          "indexed": false,
          "internalType": "string",
          "name": "description",
          "type": "string"
        },
        {
          "indexed": false,
          "internalType": "uint256",
          "name": "amount",
          "type": "uint256"
        }
      ],
      "name": "ExpenseSubmitted",
      "type": "event"
    },
    {
      "anonymous": false,
      "inputs": [
        {
          "indexed": true,
          "internalType": "uint256",
          "name": "projectId",
          "type": "uint256"
        },
        {
          "indexed": false,
          "internalType": "uint256",
          "name": "amount",
          "type": "uint256"
        }
      ],
      "name": "FundsReleased",
      "type": "event"
    },
    {
      "anonymous": false,
      "inputs": [
        {
          "indexed": false,
          "internalType": "address",
          "name": "account",
          "type": "address"
        }
      ],
      "name": "Paused",
      "type": "event"
    },
    {
      "anonymous": false,
      "inputs": [
        {
          "indexed": true,
          "internalType": "uint256",
          "name": "projectId",
          "type": "uint256"
        }
      ],
      "name": "ProjectCancelled",
      "type": "event"
    },
    {
      "anonymous": false,
      "inputs": [
        {
          "indexed": true,
          "internalType": "uint256",
          "name": "projectId",
          "type": "uint256"
        }
      ],
      "name": "ProjectCompleted",
      "type": "event"
    },
    {
      "anonymous": false,
      "inputs": [
        {
          "indexed": true,
          "internalType": "uint256",
          "name": "projectId",
          "type": "uint256"
        },
        {
          "indexed": false,
          "internalType": "string",
          "name": "title",
          "type": "string"
        },
        {
          "indexed": false,
          "internalType": "address",
          "name": "creator",
          "type": "address"
        },
        {
          "indexed": false,
          "internalType": "uint256",
          "name": "goalAmount",
          "type": "uint256"
        },
        {
          "indexed": false,
          "internalType": "uint256",
          "name": "deadline",
          "type": "uint256"
        }
      ],
      "name": "ProjectCreated",
      "type": "event"
    },
    {
      "anonymous": false,
      "inputs": [
        {
          "indexed": true,
          "internalType": "uint256",
          "name": "projectId",
          "type": "uint256"
        },
        {
          "indexed": true,
          "internalType": "address",
          "name": "contributor",
          "type": "address"
        },
        {
          "indexed": false,
          "internalType": "uint256",
          "name": "amount",
          "type": "uint256"
        }
      ],
      "name": "RefundClaimed",
      "type": "event"
    },
    {
      "anonymous": false,
      "inputs": [
        {
          "indexed": true,
          "internalType": "bytes32",
          "name": "role",
          "type": "bytes32"
        },
        {
          "indexed": true,
          "internalType": "bytes32",
          "name": "previousAdminRole",
          "type": "bytes32"
        },
        {
          "indexed": true,
          "internalType": "bytes32",
          "name": "newAdminRole",
          "type": "bytes32"
        }
      ],
      "name": "RoleAdminChanged",
      "type": "event"
    },
    {
      "anonymous": false,
      "inputs": [
        {
          "indexed": true,
          "internalType": "bytes32",
          "name": "role",
          "type": "bytes32"
        },
        {
          "indexed": true,
          "internalType": "address",
          "name": "account",
          "type": "address"
        },
        {
          "indexed": true,
          "internalType": "address",
          "name": "sender",
          "type": "address"
        }
      ],
      "name": "RoleGranted",
      "type": "event"
    },
    {
      "anonymous": false,
      "inputs": [
        {
          "indexed": true,
          "internalType": "bytes32",
          "name": "role",
          "type": "bytes32"
        },
        {
          "indexed": true,
          "internalType": "address",
          "name": "account",
          "type": "address"
        },
        {
          "indexed": true,
          "internalType": "address",
          "name": "sender",
          "type": "address"
        }
      ],
      "name": "RoleRevoked",
      "type": "event"
    },
    {
      "anonymous": false,
      "inputs": [
        {
          "indexed": false,
          "internalType": "address",
          "name": "account",
          "type": "address"
        }
      ],
      "name": "Unpaused",
      "type": "event"
    },
    {
      "inputs": [],
      "name": "DEFAULT_ADMIN_ROLE",
      "outputs": [
        {
          "internalType": "bytes32",
          "name": "",
          "type": "bytes32"
        }
      ],
      "stateMutability": "view",
      "type": "function"
    },
    {
      "inputs": [],
      "name": "MAXIMUM_FUNDING_PERIOD",
      "outputs": [
        {
          "internalType": "uint256",
          "name": "",
          "type": "uint256"
        }
      ],
      "stateMutability": "view",
      "type": "function"
    },
    {
      "inputs": [],
      "name": "MINIMUM_CONTRIBUTION",
      "outputs": [
        {
          "internalType": "uint256",
          "name": "",
          "type": "uint256"
        }
      ],
      "stateMutability": "view",
      "type": "function"
    },
    {
      "inputs": [],
      "name": "MINIMUM_FUNDING_PERIOD",
      "outputs": [
        {
          "internalType": "uint256",
          "name": "",
          "type": "uint256"
        }
      ],
      "stateMutability": "view",
      "type": "function"
    },
    {
      "inputs": [],
      "name": "PROJECT_CREATOR_ROLE",
      "outputs": [
        {
          "internalType": "bytes32",
          "name": "",
          "type": "bytes32"
        }
      ],
      "stateMutability": "view",
      "type": "function"
    },
    {
      "inputs": [
        {
          "internalType": "uint256",
          "name": "projectId",
          "type": "uint256"
        },
        {
          "internalType": "uint256",
          "name": "expenseIndex",
          "type": "uint256"
        }
      ],
      "name": "approveExpense",
      "outputs": [],
      "stateMutability": "nonpayable",
      "type": "function"
    },
    {
      "inputs": [
        {
          "internalType": "uint256",
          "name": "projectId",
          "type": "uint256"
        }
      ],
      "name": "cancelProject",
      "outputs": [],
      "stateMutability": "nonpayable",
      "type": "function"
    },
    {
      "inputs": [
        {
          "internalType": "uint256",
          "name": "projectId",
          "type": "uint256"
        }
      ],
      "name": "claimRefund",
      "outputs": [],
      "stateMutability": "nonpayable",
      "type": "function"
    },
    {
      "inputs": [
        {
          "internalType": "uint256",
          "name": "projectId",
          "type": "uint256"
        }
      ],
      "name": "completeProject",
      "outputs": [],
      "stateMutability": "nonpayable",
      "type": "function"
    },
    {
      "inputs": [
        {
          "internalType": "uint256",
          "name": "projectId",
          "type": "uint256"
        }
      ],
      "name": "contribute",
      "outputs": [],
      "stateMutability": "payable",
      "type": "function"
    },
    {
      "inputs": [
        {
          "internalType": "uint256",
          "name": "",
          "type": "uint256"
        },
        {
          "internalType": "address",
          "name": "",
          "type": "address"
        }
      ],
      "name": "contributions",
      "outputs": [
        {
          "internalType": "uint256",
          "name": "",
          "type": "uint256"
        }
      ],
      "stateMutability": "view",
      "type": "function"
    },
    {
      "inputs": [
        {
          "internalType": "string",
          "name": "title",
          "type": "string"
        },
        {
          "internalType": "string",
          "name": "description",
          "type": "string"
        },
        {
          "internalType": "uint256",
          "name": "goalAmount",
          "type": "uint256"
        },
        {
          "internalType": "uint256",
          "name": "durationInDays",
          "type": "uint256"
        }
      ],
      "name": "createProject",
      "outputs": [],
      "stateMutability": "nonpayable",
      "type": "function"
    },
    {
      "inputs": [
        {
          "internalType": "uint256",
          "name": "projectId",
          "type": "uint256"
        }
      ],
      "name": "getProjectContributions",
      "outputs": [
        {
          "components": [
            {
              "internalType": "address",
              "name": "contributor",
              "type": "address"
            },
            {
              "internalType": "uint256",
              "name": "amount",
              "type": "uint256"
            },
            {
              "internalType": "uint256",
              "name": "timestamp",
              "type": "uint256"
            }
          ],
          "internalType": "struct TransparentCrowdfunding.Contribution[]",
          "name": "",
          "type": "tuple[]"
        }
      ],
      "stateMutability": "view",
      "type": "function"
    },
    {
      "inputs": [
        {
          "internalType": "uint256",
          "name": "projectId",
          "type": "uint256"
        }
      ],
      "name": "getProjectExpenses",
      "outputs": [
        {
          "components": [
            {
              "internalType": "string",
              "name": "description",
              "type": "string"
            },
            {
              "internalType": "uint256",
              "name": "amount",
              "type": "uint256"
            },
            {
              "internalType": "enum TransparentCrowdfunding.ExpenseCategory",
              "name": "category",
              "type": "uint8"
            },
            {
              "internalType": "uint256",
              "name": "timestamp",
              "type": "uint256"
            },
            {
              "internalType": "bool",
              "name": "approved",
              "type": "bool"
            },
            {
              "internalType": "string",
              "name": "proofUrl",
              "type": "string"
            }
          ],
          "internalType": "struct TransparentCrowdfunding.Expense[]",
          "name": "",
          "type": "tuple[]"
        }
      ],
      "stateMutability": "view",
      "type": "function"
    },
    {
      "inputs": [
        {
          "internalType": "bytes32",
          "name": "role",
          "type": "bytes32"
        }
      ],
      "name": "getRoleAdmin",
      "outputs": [
        {
          "internalType": "bytes32",
          "name": "",
          "type": "bytes32"
        }
      ],
      "stateMutability": "view",
      "type": "function"
    },
    {
      "inputs": [
        {
          "internalType": "address",
          "name": "account",
          "type": "address"
        }
      ],
      "name": "grantProjectCreatorRole",
      "outputs": [],
      "stateMutability": "nonpayable",
      "type": "function"
    },
    {
      "inputs": [
        {
          "internalType": "bytes32",
          "name": "role",
          "type": "bytes32"
        },
        {
          "internalType": "address",
          "name": "account",
          "type": "address"
        }
      ],
      "name": "grantRole",
      "outputs": [],
      "stateMutability": "nonpayable",
      "type": "function"
    },
    {
      "inputs": [
        {
          "internalType": "bytes32",
          "name": "role",
          "type": "bytes32"
        },
        {
          "internalType": "address",
          "name": "account",
          "type": "address"
        }
      ],
      "name": "hasRole",
      "outputs": [
        {
          "internalType": "bool",
          "name": "",
          "type": "bool"
        }
      ],
      "stateMutability": "view",
      "type": "function"
    },
    {
      "inputs": [],
      "name": "pause",
      "outputs": [],
      "stateMutability": "nonpayable",
      "type": "function"
    },
    {
      "inputs": [],
      "name": "paused",
      "outputs": [
        {
          "internalType": "bool",
          "name": "",
          "type": "bool"
        }
      ],
      "stateMutability": "view",
      "type": "function"
    },
    {
      "inputs": [
        {
          "internalType": "uint256",
          "name": "",
          "type": "uint256"
        },
        {
          "internalType": "uint256",
          "name": "",
          "type": "uint256"
        }
      ],
      "name": "projectContributions",
      "outputs": [
        {
          "internalType": "address",
          "name": "contributor",
          "type": "address"
        },
        {
          "internalType": "uint256",
          "name": "amount",
          "type": "uint256"
        },
        {
          "internalType": "uint256",
          "name": "timestamp",
          "type": "uint256"
        }
      ],
      "stateMutability": "view",
      "type": "function"
    },
    {
      "inputs": [],
      "name": "projectCount",
      "outputs": [
        {
          "internalType": "uint256",
          "name": "",
          "type": "uint256"
        }
      ],
      "stateMutability": "view",
      "type": "function"
    },
    {
      "inputs": [
        {
          "internalType": "uint256",
          "name": "",
          "type": "uint256"
        },
        {
          "internalType": "uint256",
          "name": "",
          "type": "uint256"
        }
      ],
      "name": "projectExpenses",
      "outputs": [
        {
          "internalType": "string",
          "name": "description",
          "type": "string"
        },
        {
          "internalType": "uint256",
          "name": "amount",
          "type": "uint256"
        },
        {
          "internalType": "enum TransparentCrowdfunding.ExpenseCategory",
          "name": "category",
          "type": "uint8"
        },
        {
          "internalType": "uint256",
          "name": "timestamp",
          "type": "uint256"
        },
        {
          "internalType": "bool",
          "name": "approved",
          "type": "bool"
        },
        {
          "internalType": "string",
          "name": "proofUrl",
          "type": "string"
        }
      ],
      "stateMutability": "view",
      "type": "function"
    },
    {
      "inputs": [
        {
          "internalType": "uint256",
          "name": "",
          "type": "uint256"
        }
      ],
      "name": "projects",
      "outputs": [
        {
          "internalType": "string",
          "name": "title",
          "type": "string"
        },
        {
          "internalType": "string",
          "name": "description",
          "type": "string"
        },
        {
          "internalType": "address payable",
          "name": "creator",
          "type": "address"
        },
        {
          "internalType": "uint256",
          "name": "goalAmount",
          "type": "uint256"
        },
        {
          "internalType": "uint256",
          "name": "currentAmount",
          "type": "uint256"
        },
        {
          "internalType": "uint256",
          "name": "deadline",
          "type": "uint256"
        },
        {
          "internalType": "enum TransparentCrowdfunding.ProjectStatus",
          "name": "status",
          "type": "uint8"
        },
        {
          "internalType": "bool",
          "name": "fundsReleased",
          "type": "bool"
        },
        {
          "internalType": "uint256",
          "name": "totalExpenses",
          "type": "uint256"
        },
        {
          "internalType": "uint256",
          "name": "createdAt",
          "type": "uint256"
        }
      ],
      "stateMutability": "view",
      "type": "function"
    },
    {
      "inputs": [
        {
          "internalType": "uint256",
          "name": "",
          "type": "uint256"
        },
        {
          "internalType": "address",
          "name": "",
          "type": "address"
        }
      ],
      "name": "refundClaimed",
      "outputs": [
        {
          "internalType": "bool",
          "name": "",
          "type": "bool"
        }
      ],
      "stateMutability": "view",
      "type": "function"
    },
    {
      "inputs": [
        {
          "internalType": "bytes32",
          "name": "role",
          "type": "bytes32"
        },
        {
          "internalType": "address",
          "name": "callerConfirmation",
          "type": "address"
        }
      ],
      "name": "renounceRole",
      "outputs": [],
      "stateMutability": "nonpayable",
      "type": "function"
    },
    {
      "inputs": [
        {
          "internalType": "bytes32",
          "name": "role",
          "type": "bytes32"
        },
        {
          "internalType": "address",
          "name": "account",
          "type": "address"
        }
      ],
      "name": "revokeRole",
      "outputs": [],
      "stateMutability": "nonpayable",
      "type": "function"
    },
    {
      "inputs": [
        {
          "internalType": "uint256",
          "name": "projectId",
          "type": "uint256"
        },
        {
          "internalType": "string",
          "name": "description",
          "type": "string"
        },
        {
          "internalType": "uint256",
          "name": "amount",
          "type": "uint256"
        },
        {
          "internalType": "enum TransparentCrowdfunding.ExpenseCategory",
          "name": "category",
          "type": "uint8"
        },
        {
          "internalType": "string",
          "name": "proofUrl",
          "type": "string"
        }
      ],
      "name": "submitExpense",
      "outputs": [],
      "stateMutability": "nonpayable",
      "type": "function"
    },
    {
      "inputs": [
        {
          "internalType": "bytes4",
          "name": "interfaceId",
          "type": "bytes4"
        }
      ],
      "name": "supportsInterface",
      "outputs": [
        {
          "internalType": "bool",
          "name": "",
          "type": "bool"
        }
      ],
      "stateMutability": "view",
      "type": "function"
    },
    {
      "inputs": [],
      "name": "unpause",
      "outputs": [],
      "stateMutability": "nonpayable",
      "type": "function"
    },
    {
      "stateMutability": "payable",
      "type": "receive"
    }
  ],
  "bytecode": "0x608060405234801561001057600080fd5b5060016000819055506000600260006101000a81548160ff0219169083151502179055506100476000801b3361007e60201b60201c565b506100787fa91575122619884f8f346f6f08d276f996bc367457e1cf69df01d9361cf4e0f13361007e60201b60201c565b506101ee565b6000610090838361017b60201b60201c565b61017057600180600085815260200190815260200160002060000160008473ffffffffffffffffffffffffffffffffffffffff1673ffffffffffffffffffffffffffffffffffffffff16815260200190815260200160002060006101000a81548160ff02191690831515021790555061010d6101e660201b60201c565b73ffffffffffffffffffffffffffffffffffffffff168273ffffffffffffffffffffffffffffffffffffffff16847f2f8788117e7eff1d82e926ec794901d17c78024a50270940304540a733656f0d60405160405180910390a460019050610175565b600090505b92915050565b60006001600084815260200190815260200160002060000160008373ffffffffffffffffffffffffffffffffffffffff1673ffffffffffffffffffffffffffffffffffffffff16815260200190815260200160002060009054906101000a900460ff16905092915050565b600033905090565b613f1d806101fd6000396000f3fe6080604052600436106101d15760003560e01c8063554747b3116100f75780638f9b6b4111610095578063af11a05b11610064578063af11a05b146106ec578063c1cbbca714610717578063d547741f14610733578063db8192bc1461075c57610211565b80638f9b6b411461061c57806391d148541461065b57806394ba970914610698578063a217fddf146106c157610211565b80637d8022c0116100d15780637d8022c01461057457806381cf768c146105b15780638456cb59146105da5780638d0bba03146105f157610211565b8063554747b3146104e35780635b7baf64146105205780635c975abb1461054957610211565b8063249411471161016f5780633d891f591161013e5780633d891f59146104245780633f4ba83a146104615780634bd421be146104785780634ce6f391146104ba57610211565b8063249411471461037e5780632f2ff15d146103a757806336568abe146103d057806336fbad26146103f957610211565b8063107046bd116101ab578063107046bd146102a75780632245f152146102ed57806323c1a61c14610316578063248a9ca31461034157610211565b806301ffc9a7146102165780630311f61a146102535780630edb5f781461027e57610211565b36610211576040517f08c379a000000000000000000000000000000000000000000000000000000000815260040161020890612688565b60405180910390fd5b600080fd5b34801561022257600080fd5b5061023d60048036038101906102389190612714565b610799565b60405161024a919061275c565b60405180910390f35b34801561025f57600080fd5b50610268610813565b6040516102759190612790565b60405180910390f35b34801561028a57600080fd5b506102a560048036038101906102a09190612942565b61081a565b005b3480156102b357600080fd5b506102ce60048036038101906102c991906129f5565b610b0e565b6040516102e49a99989796959493929190612b48565b60405180910390f35b3480156102f957600080fd5b50610314600480360381019061030f91906129f5565b610cac565b005b34801561032257600080fd5b5061032b610da7565b6040516103389190612c0b565b60405180910390f35b34801561034d57600080fd5b5061036860048036038101906103639190612c52565b610dcb565b6040516103759190612c0b565b60405180910390f35b34801561038a57600080fd5b506103a560048036038101906103a091906129f5565b610deb565b005b3480156103b357600080fd5b506103ce60048036038101906103c99190612cbd565b610ee6565b005b3480156103dc57600080fd5b506103f760048036038101906103f29190612cbd565b610f08565b005b34801561040557600080fd5b5061040e610f83565b60405161041b9190612790565b60405180910390f35b34801561043057600080fd5b5061044b60048036038101906104469190612cfd565b610f89565b6040516104589190612790565b60405180910390f35b34801561046d57600080fd5b50610476610fae565b005b34801561048457600080fd5b5061049f600480360381019061049a9190612d3d565b610fc6565b6040516104b196959493929190612dc5565b60405180910390f35b3480156104c657600080fd5b506104e160048036038101906104dc9190612e34565b611149565b005b3480156104ef57600080fd5b5061050a600480360381019061050591906129f5565b611184565b6040516105179190612f70565b60405180910390f35b34801561052c57600080fd5b50610547600480360381019061054291906129f5565b611260565b005b34801561055557600080fd5b5061055e61159e565b60405161056b919061275c565b60405180910390f35b34801561058057600080fd5b5061059b60048036038101906105969190612cfd565b6115b5565b6040516105a8919061275c565b60405180910390f35b3480156105bd57600080fd5b506105d860048036038101906105d39190612d3d565b6115e4565b005b3480156105e657600080fd5b506105ef611894565b005b3480156105fd57600080fd5b506106066118ac565b6040516106139190612790565b60405180910390f35b34801561062857600080fd5b50610643600480360381019061063e9190612d3d565b6118b7565b60405161065293929190612fa1565b60405180910390f35b34801561066757600080fd5b50610682600480360381019061067d9190612cbd565b61191e565b60405161068f919061275c565b60405180910390f35b3480156106a457600080fd5b506106bf60048036038101906106ba9190612fd8565b611989565b005b3480156106cd57600080fd5b506106d6611bea565b6040516106e39190612c0b565b60405180910390f35b3480156106f857600080fd5b50610701611bf1565b60405161070e9190612790565b60405180910390f35b610731600480360381019061072c91906129f5565b611bf8565b005b34801561073f57600080fd5b5061075a60048036038101906107559190612cbd565b611fb7565b005b34801561076857600080fd5b50610783600480360381019061077e91906129f5565b611fd9565b6040516107909190613231565b60405180910390f35b60007f7965db0b000000000000000000000000000000000000000000000000000000007bffffffffffffffffffffffffffffffffffffffffffffffffffffffff1916827bffffffffffffffffffffffffffffffffffffffffffffffffffffffff1916148061080c575061080b826121d9565b5b9050919050565b6276a70081565b610822612243565b60006003600087815260200190815260200160002090508060020160009054906101000a900473ffffffffffffffffffffffffffffffffffffffff1673ffffffffffffffffffffffffffffffffffffffff163373ffffffffffffffffffffffffffffffffffffffff16146108cb576040517f08c379a00000000000000000000000000000000000000000000000000000000081526004016108c29061329f565b60405180910390fd5b6002808111156108de576108dd612ad1565b5b8160060160009054906101000a900460ff16600281111561090257610901612ad1565b5b03610942576040517f08c379a00000000000000000000000000000000000000000000000000000000081526004016109399061330b565b60405180910390fd5b838160070154610952919061335a565b81600401541015610998576040517f08c379a000000000000000000000000000000000000000000000000000000000815260040161098f906133da565b60405180910390fd5b600460008781526020019081526020016000206040518060c001604052808781526020018681526020018560048111156109d5576109d4612ad1565b5b81526020014281526020016000151581526020018481525090806001815401808255809150506001900390600052602060002090600602016000909190919091506000820151816000019081610a2b9190613606565b506020820151816001015560408201518160020160006101000a81548160ff02191690836004811115610a6157610a60612ad1565b5b02179055506060820151816003015560808201518160040160006101000a81548160ff02191690831515021790555060a0820151816005019081610aa59190613606565b505050857f3b2d319cd439ffaa0b7f54430a2f8e47fc21b618f069313d7b1c96b35fd885506001600460008a815260200190815260200160002080549050610aed91906136d8565b8787604051610afe9392919061370c565b60405180910390a2505050505050565b6003602052806000526040600020600091509050806000018054610b3190613429565b80601f0160208091040260200160405190810160405280929190818152602001828054610b5d90613429565b8015610baa5780601f10610b7f57610100808354040283529160200191610baa565b820191906000526020600020905b815481529060010190602001808311610b8d57829003601f168201915b505050505090806001018054610bbf90613429565b80601f0160208091040260200160405190810160405280929190818152602001828054610beb90613429565b8015610c385780601f10610c0d57610100808354040283529160200191610c38565b820191906000526020600020905b815481529060010190602001808311610c1b57829003601f168201915b5050505050908060020160009054906101000a900473ffffffffffffffffffffffffffffffffffffffff16908060030154908060040154908060050154908060060160009054906101000a900460ff16908060060160019054906101000a900460ff1690806007015490806008015490508a565b6000801b610cb981612284565b600060036000848152602001908152602001600020905060006002811115610ce457610ce3612ad1565b5b8160060160009054906101000a900460ff166002811115610d0857610d07612ad1565b5b14610d48576040517f08c379a0000000000000000000000000000000000000000000000000000000008152600401610d3f90613796565b60405180910390fd5b60018160060160006101000a81548160ff02191690836002811115610d7057610d6f612ad1565b5b0217905550827f60d8df137e489b6216738e436244ca4700bd6d0c8371d3c8d9c80b54538111b960405160405180910390a2505050565b7fa91575122619884f8f346f6f08d276f996bc367457e1cf69df01d9361cf4e0f181565b600060016000838152602001908152602001600020600101549050919050565b6000801b610df881612284565b600060036000848152602001908152602001600020905060006002811115610e2357610e22612ad1565b5b8160060160009054906101000a900460ff166002811115610e4757610e46612ad1565b5b14610e87576040517f08c379a0000000000000000000000000000000000000000000000000000000008152600401610e7e90613796565b60405180910390fd5b60028160060160006101000a81548160ff02191690836002811115610eaf57610eae612ad1565b5b0217905550827fe3805ed669490875ae87c5c8b1ad6ecca0e5e67305a833926d0d4317c4822fc060405160405180910390a2505050565b610eef82610dcb565b610ef881612284565b610f028383612298565b50505050565b610f10612389565b73ffffffffffffffffffffffffffffffffffffffff168173ffffffffffffffffffffffffffffffffffffffff1614610f74576040517f6697b23200000000000000000000000000000000000000000000000000000000815260040160405180910390fd5b610f7e8282612391565b505050565b60085481565b6006602052816000526040600020602052806000526040600020600091509150505481565b6000801b610fbb81612284565b610fc3612484565b50565b60046020528160005260406000208181548110610fe257600080fd5b90600052602060002090600602016000915091505080600001805461100690613429565b80601f016020809104026020016040519081016040528092919081815260200182805461103290613429565b801561107f5780601f106110545761010080835404028352916020019161107f565b820191906000526020600020905b81548152906001019060200180831161106257829003601f168201915b5050505050908060010154908060020160009054906101000a900460ff16908060030154908060040160009054906101000a900460ff16908060050180546110c690613429565b80601f01602080910402602001604051908101604052809291908181526020018280546110f290613429565b801561113f5780601f106111145761010080835404028352916020019161113f565b820191906000526020600020905b81548152906001019060200180831161112257829003601f168201915b5050505050905086565b6000801b61115681612284565b6111807fa91575122619884f8f346f6f08d276f996bc367457e1cf69df01d9361cf4e0f183610ee6565b5050565b606060056000838152602001908152602001600020805480602002602001604051908101604052809291908181526020016000905b8282101561125557838290600052602060002090600302016040518060600160405290816000820160009054906101000a900473ffffffffffffffffffffffffffffffffffffffff1673ffffffffffffffffffffffffffffffffffffffff1673ffffffffffffffffffffffffffffffffffffffff16815260200160018201548152602001600282015481525050815260200190600101906111b9565b505050509050919050565b6112686124e7565b600060036000838152602001908152602001600020905060028081111561129257611291612ad1565b5b8160060160009054906101000a900460ff1660028111156112b6576112b5612ad1565b5b146112f6576040517f08c379a00000000000000000000000000000000000000000000000000000000081526004016112ed90613802565b60405180910390fd5b60006006600084815260200190815260200160002060003373ffffffffffffffffffffffffffffffffffffffff1673ffffffffffffffffffffffffffffffffffffffff1681526020019081526020016000205490506000811161138e576040517f08c379a00000000000000000000000000000000000000000000000000000000081526004016113859061386e565b60405180910390fd5b6007600084815260200190815260200160002060003373ffffffffffffffffffffffffffffffffffffffff1673ffffffffffffffffffffffffffffffffffffffff16815260200190815260200160002060009054906101000a900460ff161561142c576040517f08c379a0000000000000000000000000000000000000000000000000000000008152600401611423906138da565b60405180910390fd5b60016007600085815260200190815260200160002060003373ffffffffffffffffffffffffffffffffffffffff1673ffffffffffffffffffffffffffffffffffffffff16815260200190815260200160002060006101000a81548160ff02191690831515021790555060003373ffffffffffffffffffffffffffffffffffffffff16826040516114bb9061392b565b60006040518083038185875af1925050503d80600081146114f8576040519150601f19603f3d011682016040523d82523d6000602084013e6114fd565b606091505b5050905080611541576040517f08c379a00000000000000000000000000000000000000000000000000000000081526004016115389061398c565b60405180910390fd5b3373ffffffffffffffffffffffffffffffffffffffff16847ff3f402280ef0a7905e124aa621b65eaeb2725c343e8b36d398ed78c29daf285c846040516115889190612790565b60405180910390a350505061159b61252d565b50565b6000600260009054906101000a900460ff16905090565b60076020528160005260406000206020528060005260406000206000915091509054906101000a900460ff1681565b6000801b6115f181612284565b600060036000858152602001908152602001600020905060028081111561161b5761161a612ad1565b5b8160060160009054906101000a900460ff16600281111561163f5761163e612ad1565b5b0361167f576040517f08c379a00000000000000000000000000000000000000000000000000000000081526004016116769061330b565b60405180910390fd5b60006004600086815260200190815260200160002084815481106116a6576116a56139ac565b5b906000526020600020906006020190508060040160009054906101000a900460ff1615611708576040517f08c379a00000000000000000000000000000000000000000000000000000000081526004016116ff90613a27565b60405180910390fd5b60018160040160006101000a81548160ff021916908315150217905550806001015482600701600082825461173d919061335a565b9250508190555060008260020160009054906101000a900473ffffffffffffffffffffffffffffffffffffffff1673ffffffffffffffffffffffffffffffffffffffff1682600101546040516117929061392b565b60006040518083038185875af1925050503d80600081146117cf576040519150601f19603f3d011682016040523d82523d6000602084013e6117d4565b606091505b5050905080611818576040517f08c379a000000000000000000000000000000000000000000000000000000000815260040161180f9061398c565b60405180910390fd5b857f406766fbe6ea7b681243ad7fc2f3f6aa21a40fe493a6deabb56d0737250451c9866040516118489190612790565b60405180910390a2857f80230996023d69b50793fa73f1919127c9d8e741d3989743c479169f22e7a28883600101546040516118849190612790565b60405180910390a2505050505050565b6000801b6118a181612284565b6118a9612537565b50565b662386f26fc1000081565b600560205281600052604060002081815481106118d357600080fd5b9060005260206000209060030201600091509150508060000160009054906101000a900473ffffffffffffffffffffffffffffffffffffffff16908060010154908060020154905083565b60006001600084815260200190815260200160002060000160008373ffffffffffffffffffffffffffffffffffffffff1673ffffffffffffffffffffffffffffffffffffffff16815260200190815260200160002060009054906101000a900460ff16905092915050565b611991612243565b7fa91575122619884f8f346f6f08d276f996bc367457e1cf69df01d9361cf4e0f16119bb81612284565b600083116119fe576040517f08c379a00000000000000000000000000000000000000000000000000000000081526004016119f590613ab9565b60405180910390fd5b620151808083611a0e9190613ad9565b1015611a4f576040517f08c379a0000000000000000000000000000000000000000000000000000000008152600401611a4690613b67565b60405180910390fd5b6276a7006201518083611a629190613ad9565b1115611aa3576040517f08c379a0000000000000000000000000000000000000000000000000000000008152600401611a9a90613bd3565b60405180910390fd5b600060086000815480929190611ab890613bf3565b91905055905060006201518084611acf9190613ad9565b42611ada919061335a565b9050600060036000848152602001908152602001600020905087816000019081611b049190613606565b5086816001019081611b169190613606565b50338160020160006101000a81548173ffffffffffffffffffffffffffffffffffffffff021916908373ffffffffffffffffffffffffffffffffffffffff16021790555085816003018190555081816005018190555060008160060160006101000a81548160ff02191690836002811115611b9457611b93612ad1565b5b0217905550428160080181905550827fcfbb9cc3bd62a88127a0a357ef5745ce183a4f314f3f36a4302bbe74b89e2f1d89338986604051611bd89493929190613c3b565b60405180910390a25050505050505050565b6000801b81565b6201518081565b611c00612243565b611c086124e7565b6000600360008381526020019081526020016000209050600073ffffffffffffffffffffffffffffffffffffffff168160020160009054906101000a900473ffffffffffffffffffffffffffffffffffffffff1673ffffffffffffffffffffffffffffffffffffffff1603611cb2576040517f08c379a0000000000000000000000000000000000000000000000000000000008152600401611ca990613cd3565b60405180910390fd5b60006002811115611cc657611cc5612ad1565b5b8160060160009054906101000a900460ff166002811115611cea57611ce9612ad1565b5b14611d2a576040517f08c379a0000000000000000000000000000000000000000000000000000000008152600401611d2190613d3f565b60405180910390fd5b80600501544210611d70576040517f08c379a0000000000000000000000000000000000000000000000000000000008152600401611d6790613dab565b60405180910390fd5b662386f26fc10000341015611dba576040517f08c379a0000000000000000000000000000000000000000000000000000000008152600401611db190613e17565b60405180910390fd5b8060030154348260040154611dcf919061335a565b1115611e10576040517f08c379a0000000000000000000000000000000000000000000000000000000008152600401611e0790613e83565b60405180910390fd5b34816004016000828254611e24919061335a565b92505081905550346006600084815260200190815260200160002060003373ffffffffffffffffffffffffffffffffffffffff1673ffffffffffffffffffffffffffffffffffffffff1681526020019081526020016000206000828254611e8b919061335a565b925050819055506005600083815260200190815260200160002060405180606001604052803373ffffffffffffffffffffffffffffffffffffffff16815260200134815260200142815250908060018154018082558091505060019003906000526020600020906003020160009091909190915060008201518160000160006101000a81548173ffffffffffffffffffffffffffffffffffffffff021916908373ffffffffffffffffffffffffffffffffffffffff160217905550602082015181600101556040820151816002015550503373ffffffffffffffffffffffffffffffffffffffff16827f0a4a91237423e0a1766a761c7cb029311d8b95d6b1b81db1b949a70c98b4e08e34604051611fa39190612790565b60405180910390a350611fb461252d565b50565b611fc082610dcb565b611fc981612284565b611fd38383612391565b50505050565b606060046000838152602001908152602001600020805480602002602001604051908101604052809291908181526020016000905b828210156121ce57838290600052602060002090600602016040518060c001604052908160008201805461204190613429565b80601f016020809104026020016040519081016040528092919081815260200182805461206d90613429565b80156120ba5780601f1061208f576101008083540402835291602001916120ba565b820191906000526020600020905b81548152906001019060200180831161209d57829003601f168201915b50505050508152602001600182015481526020016002820160009054906101000a900460ff1660048111156120f2576120f1612ad1565b5b600481111561210457612103612ad1565b5b8152602001600382015481526020016004820160009054906101000a900460ff1615151515815260200160058201805461213d90613429565b80601f016020809104026020016040519081016040528092919081815260200182805461216990613429565b80156121b65780601f1061218b576101008083540402835291602001916121b6565b820191906000526020600020905b81548152906001019060200180831161219957829003601f168201915b5050505050815250508152602001906001019061200e565b505050509050919050565b60007f01ffc9a7000000000000000000000000000000000000000000000000000000007bffffffffffffffffffffffffffffffffffffffffffffffffffffffff1916827bffffffffffffffffffffffffffffffffffffffffffffffffffffffff1916149050919050565b61224b61159e565b15612282576040517fd93c066500000000000000000000000000000000000000000000000000000000815260040160405180910390fd5b565b61229581612290612389565b61259a565b50565b60006122a4838361191e565b61237e57600180600085815260200190815260200160002060000160008473ffffffffffffffffffffffffffffffffffffffff1673ffffffffffffffffffffffffffffffffffffffff16815260200190815260200160002060006101000a81548160ff02191690831515021790555061231b612389565b73ffffffffffffffffffffffffffffffffffffffff168273ffffffffffffffffffffffffffffffffffffffff16847f2f8788117e7eff1d82e926ec794901d17c78024a50270940304540a733656f0d60405160405180910390a460019050612383565b600090505b92915050565b600033905090565b600061239d838361191e565b156124795760006001600085815260200190815260200160002060000160008473ffffffffffffffffffffffffffffffffffffffff1673ffffffffffffffffffffffffffffffffffffffff16815260200190815260200160002060006101000a81548160ff021916908315150217905550612416612389565b73ffffffffffffffffffffffffffffffffffffffff168273ffffffffffffffffffffffffffffffffffffffff16847ff6391f5c32d9c69d2a47ea670b442974b53935d1edc7fd64eb21e047a839171b60405160405180910390a46001905061247e565b600090505b92915050565b61248c6125eb565b6000600260006101000a81548160ff0219169083151502179055507f5db9ee0a495bf2e6ff9c91a7834c1ba4fdd244a5e8aa4e537bd38aeae4b073aa6124d0612389565b6040516124dd9190613ea3565b60405180910390a1565b600260005403612523576040517f3ee5aeb500000000000000000000000000000000000000000000000000000000815260040160405180910390fd5b6002600081905550565b6001600081905550565b61253f612243565b6001600260006101000a81548160ff0219169083151502179055507f62e78cea01bee320cd4e420270b5ea74000d11b0c9f74754ebdbfc544b05a258612583612389565b6040516125909190613ea3565b60405180910390a1565b6125a4828261191e565b6125e75780826040517fe2517d3f0000000000000000000000000000000000000000000000000000000081526004016125de929190613ebe565b60405180910390fd5b5050565b6125f361159e565b612629576040517f8dfc202b00000000000000000000000000000000000000000000000000000000815260040160405180910390fd5b565b600082825260208201905092915050565b7f446972656374206465706f73697473206e6f7420616363657074656400000000600082015250565b6000612672601c8361262b565b915061267d8261263c565b602082019050919050565b600060208201905081810360008301526126a181612665565b9050919050565b6000604051905090565b600080fd5b600080fd5b60007fffffffff0000000000000000000000000000000000000000000000000000000082169050919050565b6126f1816126bc565b81146126fc57600080fd5b50565b60008135905061270e816126e8565b92915050565b60006020828403121561272a576127296126b2565b5b6000612738848285016126ff565b91505092915050565b60008115159050919050565b61275681612741565b82525050565b6000602082019050612771600083018461274d565b92915050565b6000819050919050565b61278a81612777565b82525050565b60006020820190506127a56000830184612781565b92915050565b6127b481612777565b81146127bf57600080fd5b50565b6000813590506127d1816127ab565b92915050565b600080fd5b600080fd5b6000601f19601f8301169050919050565b7f4e487b7100000000000000000000000000000000000000000000000000000000600052604160045260246000fd5b61282a826127e1565b810181811067ffffffffffffffff82111715612849576128486127f2565b5b80604052505050565b600061285c6126a8565b90506128688282612821565b919050565b600067ffffffffffffffff821115612888576128876127f2565b5b612891826127e1565b9050602081019050919050565b82818337600083830152505050565b60006128c06128bb8461286d565b612852565b9050828152602081018484840111156128dc576128db6127dc565b5b6128e784828561289e565b509392505050565b600082601f830112612904576129036127d7565b5b81356129148482602086016128ad565b91505092915050565b6005811061292a57600080fd5b50565b60008135905061293c8161291d565b92915050565b600080600080600060a0868803121561295e5761295d6126b2565b5b600061296c888289016127c2565b955050602086013567ffffffffffffffff81111561298d5761298c6126b7565b5b612999888289016128ef565b94505060406129aa888289016127c2565b93505060606129bb8882890161292d565b925050608086013567ffffffffffffffff8111156129dc576129db6126b7565b5b6129e8888289016128ef565b9150509295509295909350565b600060208284031215612a0b57612a0a6126b2565b5b6000612a19848285016127c2565b91505092915050565b600081519050919050565b60005b83811015612a4b578082015181840152602081019050612a30565b60008484015250505050565b6000612a6282612a22565b612a6c818561262b565b9350612a7c818560208601612a2d565b612a85816127e1565b840191505092915050565b600073ffffffffffffffffffffffffffffffffffffffff82169050919050565b6000612abb82612a90565b9050919050565b612acb81612ab0565b82525050565b7f4e487b7100000000000000000000000000000000000000000000000000000000600052602160045260246000fd5b60038110612b1157612b10612ad1565b5b50565b6000819050612b2282612b00565b919050565b6000612b3282612b14565b9050919050565b612b4281612b27565b82525050565b6000610140820190508181036000830152612b63818d612a57565b90508181036020830152612b77818c612a57565b9050612b86604083018b612ac2565b612b93606083018a612781565b612ba06080830189612781565b612bad60a0830188612781565b612bba60c0830187612b39565b612bc760e083018661274d565b612bd5610100830185612781565b612be3610120830184612781565b9b9a5050505050505050505050565b6000819050919050565b612c0581612bf2565b82525050565b6000602082019050612c206000830184612bfc565b92915050565b612c2f81612bf2565b8114612c3a57600080fd5b50565b600081359050612c4c81612c26565b92915050565b600060208284031215612c6857612c676126b2565b5b6000612c7684828501612c3d565b91505092915050565b6000612c8a82612a90565b9050919050565b612c9a81612c7f565b8114612ca557600080fd5b50565b600081359050612cb781612c91565b92915050565b60008060408385031215612cd457612cd36126b2565b5b6000612ce285828601612c3d565b9250506020612cf385828601612ca8565b9150509250929050565b60008060408385031215612d1457612d136126b2565b5b6000612d22858286016127c2565b9250506020612d3385828601612ca8565b9150509250929050565b60008060408385031215612d5457612d536126b2565b5b6000612d62858286016127c2565b9250506020612d73858286016127c2565b9150509250929050565b60058110612d8e57612d8d612ad1565b5b50565b6000819050612d9f82612d7d565b919050565b6000612daf82612d91565b9050919050565b612dbf81612da4565b82525050565b600060c0820190508181036000830152612ddf8189612a57565b9050612dee6020830188612781565b612dfb6040830187612db6565b612e086060830186612781565b612e15608083018561274d565b81810360a0830152612e278184612a57565b9050979650505050505050565b600060208284031215612e4a57612e496126b2565b5b6000612e5884828501612ca8565b91505092915050565b600081519050919050565b600082825260208201905092915050565b6000819050602082019050919050565b612e9681612c7f565b82525050565b612ea581612777565b82525050565b606082016000820151612ec16000850182612e8d565b506020820151612ed46020850182612e9c565b506040820151612ee76040850182612e9c565b50505050565b6000612ef98383612eab565b60608301905092915050565b6000602082019050919050565b6000612f1d82612e61565b612f278185612e6c565b9350612f3283612e7d565b8060005b83811015612f63578151612f4a8882612eed565b9750612f5583612f05565b925050600181019050612f36565b5085935050505092915050565b60006020820190508181036000830152612f8a8184612f12565b905092915050565b612f9b81612c7f565b82525050565b6000606082019050612fb66000830186612f92565b612fc36020830185612781565b612fd06040830184612781565b949350505050565b60008060008060808587031215612ff257612ff16126b2565b5b600085013567ffffffffffffffff8111156130105761300f6126b7565b5b61301c878288016128ef565b945050602085013567ffffffffffffffff81111561303d5761303c6126b7565b5b613049878288016128ef565b935050604061305a878288016127c2565b925050606061306b878288016127c2565b91505092959194509250565b600081519050919050565b600082825260208201905092915050565b6000819050602082019050919050565b600082825260208201905092915050565b60006130bf82612a22565b6130c981856130a3565b93506130d9818560208601612a2d565b6130e2816127e1565b840191505092915050565b6130f681612da4565b82525050565b61310581612741565b82525050565b600060c083016000830151848203600086015261312882826130b4565b915050602083015161313d6020860182612e9c565b50604083015161315060408601826130ed565b5060608301516131636060860182612e9c565b50608083015161317660808601826130fc565b5060a083015184820360a086015261318e82826130b4565b9150508091505092915050565b60006131a7838361310b565b905092915050565b6000602082019050919050565b60006131c782613077565b6131d18185613082565b9350836020820285016131e385613093565b8060005b8581101561321f5784840389528151613200858261319b565b945061320b836131af565b925060208a019950506001810190506131e7565b50829750879550505050505092915050565b6000602082019050818103600083015261324b81846131bc565b905092915050565b7f4f6e6c792063726561746f722063616e207375626d697420657870656e736573600082015250565b600061328960208361262b565b915061329482613253565b602082019050919050565b600060208201905081810360008301526132b88161327c565b9050919050565b7f50726f6a6563742069732063616e63656c6c6564000000000000000000000000600082015250565b60006132f560148361262b565b9150613300826132bf565b602082019050919050565b60006020820190508181036000830152613324816132e8565b9050919050565b7f4e487b7100000000000000000000000000000000000000000000000000000000600052601160045260246000fd5b600061336582612777565b915061337083612777565b92508282019050808211156133885761338761332b565b5b92915050565b7f496e73756666696369656e742066756e64730000000000000000000000000000600082015250565b60006133c460128361262b565b91506133cf8261338e565b602082019050919050565b600060208201905081810360008301526133f3816133b7565b9050919050565b7f4e487b7100000000000000000000000000000000000000000000000000000000600052602260045260246000fd5b6000600282049050600182168061344157607f821691505b602082108103613454576134536133fa565b5b50919050565b60008190508160005260206000209050919050565b60006020601f8301049050919050565b600082821b905092915050565b6000600883026134bc7fffffffffffffffffffffffffffffffffffffffffffffffffffffffffffffffff8261347f565b6134c6868361347f565b95508019841693508086168417925050509392505050565b6000819050919050565b60006135036134fe6134f984612777565b6134de565b612777565b9050919050565b6000819050919050565b61351d836134e8565b6135316135298261350a565b84845461348c565b825550505050565b600090565b613546613539565b613551818484613514565b505050565b5b818110156135755761356a60008261353e565b600181019050613557565b5050565b601f8211156135ba5761358b8161345a565b6135948461346f565b810160208510156135a3578190505b6135b76135af8561346f565b830182613556565b50505b505050565b600082821c905092915050565b60006135dd600019846008026135bf565b1980831691505092915050565b60006135f683836135cc565b9150826002028217905092915050565b61360f82612a22565b67ffffffffffffffff811115613628576136276127f2565b5b6136328254613429565b61363d828285613579565b600060209050601f831160018114613670576000841561365e578287015190505b61366885826135ea565b8655506136d0565b601f19841661367e8661345a565b60005b828110156136a657848901518255600182019150602085019450602081019050613681565b868310156136c357848901516136bf601f8916826135cc565b8355505b6001600288020188555050505b505050505050565b60006136e382612777565b91506136ee83612777565b92508282039050818111156137065761370561332b565b5b92915050565b60006060820190506137216000830186612781565b81810360208301526137338185612a57565b90506137426040830184612781565b949350505050565b7f50726f6a656374206e6f74206163746976650000000000000000000000000000600082015250565b600061378060128361262b565b915061378b8261374a565b602082019050919050565b600060208201905081810360008301526137af81613773565b9050919050565b7f50726f6a656374206e6f742063616e63656c6c65640000000000000000000000600082015250565b60006137ec60158361262b565b91506137f7826137b6565b602082019050919050565b6000602082019050818103600083015261381b816137df565b9050919050565b7f4e6f20636f6e747269627574696f6e20666f756e640000000000000000000000600082015250565b600061385860158361262b565b915061386382613822565b602082019050919050565b600060208201905081810360008301526138878161384b565b9050919050565b7f526566756e6420616c726561647920636c61696d656400000000000000000000600082015250565b60006138c460168361262b565b91506138cf8261388e565b602082019050919050565b600060208201905081810360008301526138f3816138b7565b9050919050565b600081905092915050565b50565b60006139156000836138fa565b915061392082613905565b600082019050919050565b600061393682613908565b9150819050919050565b7f5472616e73666572206661696c65640000000000000000000000000000000000600082015250565b6000613976600f8361262b565b915061398182613940565b602082019050919050565b600060208201905081810360008301526139a581613969565b9050919050565b7f4e487b7100000000000000000000000000000000000000000000000000000000600052603260045260246000fd5b7f457870656e736520616c726561647920617070726f7665640000000000000000600082015250565b6000613a1160188361262b565b9150613a1c826139db565b602082019050919050565b60006020820190508181036000830152613a4081613a04565b9050919050565b7f476f616c20616d6f756e74206d7573742062652067726561746572207468616e60008201527f2030000000000000000000000000000000000000000000000000000000000000602082015250565b6000613aa360228361262b565b9150613aae82613a47565b604082019050919050565b60006020820190508181036000830152613ad281613a96565b9050919050565b6000613ae482612777565b9150613aef83612777565b9250828202613afd81612777565b91508282048414831517613b1457613b1361332b565b5b5092915050565b7f4475726174696f6e20746f6f2073686f72740000000000000000000000000000600082015250565b6000613b5160128361262b565b9150613b5c82613b1b565b602082019050919050565b60006020820190508181036000830152613b8081613b44565b9050919050565b7f4475726174696f6e20746f6f206c6f6e67000000000000000000000000000000600082015250565b6000613bbd60118361262b565b9150613bc882613b87565b602082019050919050565b60006020820190508181036000830152613bec81613bb0565b9050919050565b6000613bfe82612777565b91507fffffffffffffffffffffffffffffffffffffffffffffffffffffffffffffffff8203613c3057613c2f61332b565b5b600182019050919050565b60006080820190508181036000830152613c558187612a57565b9050613c646020830186612f92565b613c716040830185612781565b613c7e6060830184612781565b95945050505050565b7f50726f6a65637420646f6573206e6f7420657869737400000000000000000000600082015250565b6000613cbd60168361262b565b9150613cc882613c87565b602082019050919050565b60006020820190508181036000830152613cec81613cb0565b9050919050565b7f50726f6a656374206973206e6f74206163746976650000000000000000000000600082015250565b6000613d2960158361262b565b9150613d3482613cf3565b602082019050919050565b60006020820190508181036000830152613d5881613d1c565b9050919050565b7f50726f6a6563742066756e64696e6720706572696f642068617320656e646564600082015250565b6000613d9560208361262b565b9150613da082613d5f565b602082019050919050565b60006020820190508181036000830152613dc481613d88565b9050919050565b7f436f6e747269627574696f6e20746f6f20736d616c6c00000000000000000000600082015250565b6000613e0160168361262b565b9150613e0c82613dcb565b602082019050919050565b60006020820190508181036000830152613e3081613df4565b9050919050565b7f457863656564732070726f6a65637420676f616c000000000000000000000000600082015250565b6000613e6d60148361262b565b9150613e7882613e37565b602082019050919050565b60006020820190508181036000830152613e9c81613e60565b9050919050565b6000602082019050613eb86000830184612f92565b92915050565b6000604082019050613ed36000830185612f92565b613ee06020830184612bfc565b939250505056fea2646970667358221220569330ebd7da8d8ea8b88d158841c3889ac46a267b8913f3374ad7120565bf0e64736f6c634300081b0033",
  "linkReferences": {},
  "deployedLinkReferences": {}
}